{
  "contractName": "Crowdsale",
  "abi": [
    {
      "inputs": [
        {
          "internalType": "address",
          "name": "_walletAddress",
          "type": "address"
        },
        {
          "internalType": "uint256",
          "name": "_rate",
          "type": "uint256"
        },
        {
          "internalType": "address",
          "name": "_tokenAddress",
          "type": "address"
        }
      ],
      "stateMutability": "nonpayable",
      "type": "constructor"
    },
    {
      "anonymous": false,
      "inputs": [
        {
          "indexed": true,
          "internalType": "address",
          "name": "purchaser",
          "type": "address"
        },
        {
          "indexed": true,
          "internalType": "address",
          "name": "beneficiary",
          "type": "address"
        },
        {
          "indexed": true,
          "internalType": "uint256",
          "name": "value",
          "type": "uint256"
        },
        {
          "indexed": false,
          "internalType": "uint256",
          "name": "amount",
          "type": "uint256"
        }
      ],
      "name": "TokenPurchase",
      "type": "event"
    },
    {
      "inputs": [],
      "name": "amount",
      "outputs": [
        {
          "internalType": "uint256",
          "name": "",
          "type": "uint256"
        }
      ],
      "stateMutability": "view",
      "type": "function"
    },
    {
      "inputs": [],
      "name": "owner",
      "outputs": [
        {
          "internalType": "address",
          "name": "",
          "type": "address"
        }
      ],
      "stateMutability": "view",
      "type": "function"
    },
    {
      "inputs": [],
      "name": "rate",
      "outputs": [
        {
          "internalType": "uint256",
          "name": "",
          "type": "uint256"
        }
      ],
      "stateMutability": "view",
      "type": "function"
    },
    {
      "inputs": [],
      "name": "stage",
      "outputs": [
        {
          "internalType": "enum Crowdsale.CrowdsaleStage",
          "name": "",
          "type": "uint8"
        }
      ],
      "stateMutability": "view",
      "type": "function"
    },
    {
      "inputs": [],
      "name": "tokenAddress",
      "outputs": [
        {
          "internalType": "address",
          "name": "",
          "type": "address"
        }
      ],
      "stateMutability": "view",
      "type": "function"
    },
    {
      "inputs": [],
      "name": "walletAddress",
      "outputs": [
        {
          "internalType": "address payable",
          "name": "",
          "type": "address"
        }
      ],
      "stateMutability": "view",
      "type": "function"
    },
    {
      "inputs": [
        {
          "internalType": "address",
          "name": "_beneficiary",
          "type": "address"
        }
      ],
      "name": "buyTokens",
      "outputs": [],
      "stateMutability": "payable",
      "type": "function"
    },
    {
      "inputs": [
        {
          "internalType": "address",
          "name": "_beneficiary",
          "type": "address"
        }
      ],
      "name": "getUserContribution",
      "outputs": [
        {
          "internalType": "uint256",
          "name": "",
          "type": "uint256"
        }
      ],
      "stateMutability": "view",
      "type": "function"
    },
    {
      "inputs": [
        {
          "internalType": "uint256",
          "name": "_stage",
          "type": "uint256"
        }
      ],
      "name": "setCrowdSaleStage",
      "outputs": [],
      "stateMutability": "nonpayable",
      "type": "function"
    }
  ],
  "bytecode": "0x60806040526000600560006101000a81548160ff021916908360028111156200002d576200002c62000137565b5b02179055503480156200003f57600080fd5b5060405162000fdf38038062000fdf83398181016040528101906200006591906200020b565b82600160006101000a81548173ffffffffffffffffffffffffffffffffffffffff021916908373ffffffffffffffffffffffffffffffffffffffff16021790555081600281905550806000806101000a81548173ffffffffffffffffffffffffffffffffffffffff021916908373ffffffffffffffffffffffffffffffffffffffff16021790555033600360006101000a81548173ffffffffffffffffffffffffffffffffffffffff021916908373ffffffffffffffffffffffffffffffffffffffff16021790555050505062000267565b7f4e487b7100000000000000000000000000000000000000000000000000000000600052602160045260246000fd5b600080fd5b600073ffffffffffffffffffffffffffffffffffffffff82169050919050565b600062000198826200016b565b9050919050565b620001aa816200018b565b8114620001b657600080fd5b50565b600081519050620001ca816200019f565b92915050565b6000819050919050565b620001e581620001d0565b8114620001f157600080fd5b50565b6000815190506200020581620001da565b92915050565b60008060006060848603121562000227576200022662000166565b5b60006200023786828701620001b9565b93505060206200024a86828701620001f4565b92505060406200025d86828701620001b9565b9150509250925092565b610d6880620002776000396000f3fe6080604052600436106100865760003560e01c80639d76ea58116100595780639d76ea5814610135578063aa8c217c14610160578063bb8b2b471461018b578063c040e6b8146101c8578063ec8ac4d8146101f357610086565b80632a86e7261461008b5780632c4e722e146100b45780636ad5b3ea146100df5780638da5cb5b1461010a575b600080fd5b34801561009757600080fd5b506100b260048036038101906100ad919061092c565b61020f565b005b3480156100c057600080fd5b506100c96103fc565b6040516100d69190610968565b60405180910390f35b3480156100eb57600080fd5b506100f4610402565b60405161010191906109c4565b60405180910390f35b34801561011657600080fd5b5061011f610428565b60405161012c9190610a00565b60405180910390f35b34801561014157600080fd5b5061014a61044e565b6040516101579190610a00565b60405180910390f35b34801561016c57600080fd5b50610175610472565b6040516101829190610968565b60405180910390f35b34801561019757600080fd5b506101b260048036038101906101ad9190610a47565b610478565b6040516101bf9190610968565b60405180910390f35b3480156101d457600080fd5b506101dd6104c1565b6040516101ea9190610aeb565b60405180910390f35b61020d60048036038101906102089190610a47565b6104d4565b005b338073ffffffffffffffffffffffffffffffffffffffff16600360009054906101000a900473ffffffffffffffffffffffffffffffffffffffff1673ffffffffffffffffffffffffffffffffffffffff16146102a0576040517f08c379a000000000000000000000000000000000000000000000000000000000815260040161029790610b63565b60405180910390fd5b81600060028111156102b5576102b4610a74565b5b14156102eb576000600560006101000a81548160ff021916908360028111156102e1576102e0610a74565b5b0217905550610363565b8160016002811115610300576102ff610a74565b5b1415610336576001600560006101000a81548160ff0219169083600281111561032c5761032b610a74565b5b0217905550610362565b6002600560006101000a81548160ff0219169083600281111561035c5761035b610a74565b5b02179055505b5b6000600281111561037757610376610a74565b5b600560009054906101000a900460ff16600281111561039957610398610a74565b5b14156103ad576101f46002819055506103f8565b600160028111156103c1576103c0610a74565b5b600560009054906101000a900460ff1660028111156103e3576103e2610a74565b5b14156103f65760c86002819055506103f7565b5b5b5050565b60025481565b600160009054906101000a900473ffffffffffffffffffffffffffffffffffffffff1681565b600360009054906101000a900473ffffffffffffffffffffffffffffffffffffffff1681565b60008054906101000a900473ffffffffffffffffffffffffffffffffffffffff1681565b60045481565b6000600660008373ffffffffffffffffffffffffffffffffffffffff1673ffffffffffffffffffffffffffffffffffffffff168152602001908152602001600020549050919050565b600560009054906101000a900460ff1681565b60003490506301c9c3806104e66105ee565b116104fa576104f5600061020f565b61053f565b6301c9c3806105076105ee565b11801561051f57506302faf08061051c6105ee565b11155b156105335761052e600161020f565b61053e565b61053d600261020f565b5b5b61054982826106b0565b61055e8160045461079990919063ffffffff16565b600481905550600061056f826107af565b905061057b83826107cd565b610583610870565b818373ffffffffffffffffffffffffffffffffffffffff163373ffffffffffffffffffffffffffffffffffffffff167f623b3804fa71d67900d064613da8f94b9617215ee90799290593e1745087ad18846040516105e19190610968565b60405180910390a4505050565b60008060009054906101000a900473ffffffffffffffffffffffffffffffffffffffff1673ffffffffffffffffffffffffffffffffffffffff166370a0823160008054906101000a900473ffffffffffffffffffffffffffffffffffffffff166040518263ffffffff1660e01b815260040161066a9190610a00565b602060405180830381865afa158015610687573d6000803e3d6000fd5b505050506040513d601f19601f820116820180604052508101906106ab9190610b98565b905090565b600073ffffffffffffffffffffffffffffffffffffffff168273ffffffffffffffffffffffffffffffffffffffff1614156106ea57600080fd5b60008114156106f857600080fd5b6000600660008473ffffffffffffffffffffffffffffffffffffffff1673ffffffffffffffffffffffffffffffffffffffff1681526020019081526020016000205490506107516004548261079990919063ffffffff16565b600660008573ffffffffffffffffffffffffffffffffffffffff1673ffffffffffffffffffffffffffffffffffffffff16815260200190815260200160002081905550505050565b600081836107a79190610bf4565b905092915050565b60006107c6600254836108db90919063ffffffff16565b9050919050565b60008054906101000a900473ffffffffffffffffffffffffffffffffffffffff1673ffffffffffffffffffffffffffffffffffffffff1663a9059cbb83836040518363ffffffff1660e01b8152600401610828929190610c4a565b6020604051808303816000875af1158015610847573d6000803e3d6000fd5b505050506040513d601f19601f8201168201806040525081019061086b9190610cab565b505050565b600160009054906101000a900473ffffffffffffffffffffffffffffffffffffffff1673ffffffffffffffffffffffffffffffffffffffff166108fc349081150290604051600060405180830381858888f193505050501580156108d8573d6000803e3d6000fd5b50565b600081836108e99190610cd8565b905092915050565b600080fd5b6000819050919050565b610909816108f6565b811461091457600080fd5b50565b60008135905061092681610900565b92915050565b600060208284031215610942576109416108f1565b5b600061095084828501610917565b91505092915050565b610962816108f6565b82525050565b600060208201905061097d6000830184610959565b92915050565b600073ffffffffffffffffffffffffffffffffffffffff82169050919050565b60006109ae82610983565b9050919050565b6109be816109a3565b82525050565b60006020820190506109d960008301846109b5565b92915050565b60006109ea82610983565b9050919050565b6109fa816109df565b82525050565b6000602082019050610a1560008301846109f1565b92915050565b610a24816109df565b8114610a2f57600080fd5b50565b600081359050610a4181610a1b565b92915050565b600060208284031215610a5d57610a5c6108f1565b5b6000610a6b84828501610a32565b91505092915050565b7f4e487b7100000000000000000000000000000000000000000000000000000000600052602160045260246000fd5b60038110610ab457610ab3610a74565b5b50565b6000819050610ac582610aa3565b919050565b6000610ad582610ab7565b9050919050565b610ae581610aca565b82525050565b6000602082019050610b006000830184610adc565b92915050565b600082825260208201905092915050565b7f796f752063616e6e6f742063616c6c2074686973206d6574686f640000000000600082015250565b6000610b4d601b83610b06565b9150610b5882610b17565b602082019050919050565b60006020820190508181036000830152610b7c81610b40565b9050919050565b600081519050610b9281610900565b92915050565b600060208284031215610bae57610bad6108f1565b5b6000610bbc84828501610b83565b91505092915050565b7f4e487b7100000000000000000000000000000000000000000000000000000000600052601160045260246000fd5b6000610bff826108f6565b9150610c0a836108f6565b9250827fffffffffffffffffffffffffffffffffffffffffffffffffffffffffffffffff03821115610c3f57610c3e610bc5565b5b828201905092915050565b6000604082019050610c5f60008301856109f1565b610c6c6020830184610959565b9392505050565b60008115159050919050565b610c8881610c73565b8114610c9357600080fd5b50565b600081519050610ca581610c7f565b92915050565b600060208284031215610cc157610cc06108f1565b5b6000610ccf84828501610c96565b91505092915050565b6000610ce3826108f6565b9150610cee836108f6565b9250817fffffffffffffffffffffffffffffffffffffffffffffffffffffffffffffffff0483118215151615610d2757610d26610bc5565b5b82820290509291505056fea2646970667358221220d9d87d7edc8d5acf598bad37a0b87deffe186c6bf438e63572a8c1ea2ee7065964736f6c634300080a0033",
  "immutableReferences": {},
  "source": "//SPDX-License-Identifier: MIT\r\npragma solidity ^0.8.0;\r\n\r\n//import ierc20 interface from openzeppelin\r\nimport '@openzeppelin/contracts/token/ERC20/IERC20.sol';\r\n//import SafeMath library from openzeppelin\r\nimport '@openzeppelin/contracts/utils/math/SafeMath.sol';\r\n//import safeERC20 contract from openzeppelin\r\nimport '@openzeppelin/contracts/token/ERC20/utils/SafeERC20.sol';\r\n\r\ncontract Crowdsale {\r\n\r\n    //use safemath for datatype uint256\r\n    using SafeMath for uint256;\r\n\r\n    //variable to store the address of token to use for crowdsale\r\n    address public tokenAddress;\r\n\r\n    //variable to store the address of owner where the funds generated by this crowdsale contract\r\n    //will be transferred to\r\n    address payable public walletAddress;\r\n\r\n    //variable to store the rate at which token will be sold\r\n    uint256 public rate;\r\n\r\n    //varibale to store the owner of this contract\r\n    address public owner;\r\n\r\n    //variable to store the total amount of money sent to contract by buyers of tokens\r\n    uint256 public amount;\r\n\r\n    //enum to define the crowdsale stage\r\n    enum CrowdsaleStage {preSale, seedSale, finalSale}\r\n\r\n    //variable to store the initial stage of crowdsale\r\n    //define the initial stage of crowdsale\r\n    CrowdsaleStage public stage = CrowdsaleStage.preSale;\r\n\r\n    //mapping of address to amount of tokens contributed in crowdsale\r\n    mapping(address => uint) contributions;\r\n\r\n    //event for purchasing tokens\r\n    //first parameter is the account address calling the function\r\n    //second parameter is the the buyer address to which tokens will be sent\r\n    //third parameter is the amount sent to this crowdsale contract to buy tokens\r\n    //fourth parameter is the total number of tokens sold to the buyer\r\n    event TokenPurchase(address indexed purchaser, address indexed beneficiary, uint256 indexed value, uint256 amount);\r\n\r\n    //constructor to initialize the rate at which token will be sold,\r\n    //the wallet address where the sent money to buy tokens will be stored,\r\n    //the address of token which will be used for selling in this crowdsale\r\n    constructor(address _walletAddress, uint256 _rate, address _tokenAddress){\r\n\r\n        walletAddress = payable(_walletAddress);\r\n        rate = _rate;\r\n        tokenAddress = _tokenAddress;\r\n        owner = msg.sender;\r\n    }\r\n\r\n    //function to check if the address to which tokens should be sent is not zero\r\n    //and amount sent to buy the tokens is not zero\r\n    function preValidatePurchase(address _beneficiary, uint256 _amount) internal {\r\n\r\n        //address to which tokens should be sent should not be null\r\n        require(_beneficiary != address(0));\r\n\r\n        //amount sent to the contract for buying tokens should not be zero\r\n        require(_amount != 0);\r\n\r\n        //get the amount contributed by buyer before\r\n        uint existingContribution = contributions[_beneficiary];\r\n\r\n        //update the record\r\n        contributions[_beneficiary] = existingContribution.add(amount);\r\n\r\n    }\r\n\r\n    //function to send tokens to an address from this crowdsale contract\r\n    function sendTokens(address _beneficiary, uint256 _amount) internal {\r\n\r\n\r\n        //send tokens from this crowdsale contract to the beneficiary\r\n        IERC20(tokenAddress).transfer(_beneficiary, _amount);\r\n    }\r\n\r\n    //function to get the total number of tokens to\r\n    //be sent to a address from this crowdsale contract\r\n    //based on the money sent by the buyer\r\n    function getTokenAmount(uint256 _amount) internal returns (uint256){\r\n\r\n        return _amount.mul(rate);\r\n    }\r\n\r\n    //function to transfer funds by this crowdsale contract\r\n    //to the owner account address\r\n    function transferMoney() internal {\r\n\r\n        //transfer the funds to owner account address\r\n        walletAddress.transfer(msg.value);\r\n    }\r\n\r\n    //function to get the token balance\r\n    function getTokenQuantity() internal returns (uint256) {\r\n\r\n        return IERC20(tokenAddress).balanceOf(tokenAddress);\r\n    }\r\n\r\n    //function which will be called by users to buy\r\n    //tokens from the crowdsale contract\r\n    function buyTokens(address _beneficiary) public payable {\r\n\r\n        //store the amount sent by the buyer to buy the tokens\r\n        uint256 sentAmount = msg.value;\r\n\r\n        //if token quantity is less than or equal to 30 million\r\n        if (getTokenQuantity() <= 30000000) {\r\n\r\n            //set crowd sale stage to presale\r\n            setCrowdSaleStage(0);\r\n        }\r\n        //if token quantity is less than or equal to 50 million\r\n        else if (getTokenQuantity() > 30000000 && getTokenQuantity() <= 50000000) {\r\n\r\n            //set crowd sale stage to seed sale\r\n            setCrowdSaleStage(1);\r\n        }\r\n        //for remaining tokens\r\n        else {\r\n            //set crowd sale stage to final sale\r\n            setCrowdSaleStage(2);\r\n        }\r\n\r\n        //check the buyer address is not zero and\r\n        //the amount sent to buy tokens is not zero\r\n        preValidatePurchase(_beneficiary, sentAmount);\r\n\r\n\r\n        //update the total funds generated by the crowdsale contract\r\n        amount = amount.add(sentAmount);\r\n\r\n        //calculate the amount of tokens to be sold to the buyer based on the money sent\r\n        uint256 tokens = getTokenAmount(sentAmount);\r\n\r\n        //send the tokens to the buyer\r\n        sendTokens(_beneficiary, tokens);\r\n\r\n        //transfer the funds from this crowdsale contract to owner's account\r\n        transferMoney();\r\n\r\n        //emit the token purchase event\r\n        emit TokenPurchase(msg.sender, _beneficiary, sentAmount, tokens);\r\n    }\r\n\r\n    //function to get the amount sent by a buyer to this contract\r\n    function getUserContribution(address _beneficiary) public view returns (uint256){\r\n\r\n        //return the amount mapped to the address in contributions mapping\r\n        return contributions[_beneficiary];\r\n    }\r\n\r\n    //modifier to check if caller is owner of token\r\n    modifier onlyOwner(address _sender){\r\n\r\n        //check if sender is the token owner\r\n        require(owner == _sender, \"you cannot call this method\");\r\n        _;\r\n    }\r\n\r\n    //function to set the stage of crowdsale\r\n    function setCrowdSaleStage(uint _stage) public onlyOwner(msg.sender) {\r\n\r\n        //if the passed stage is pre sale\r\n        if (uint(CrowdsaleStage.preSale) == _stage) {\r\n\r\n            //set the current stage to pre sale\r\n            stage = CrowdsaleStage.preSale;\r\n\r\n        }\r\n        //if the passed stage is seed sale\r\n        else if (uint(CrowdsaleStage.seedSale) == _stage) {\r\n\r\n            //set the current stage to seed sale\r\n            stage = CrowdsaleStage.seedSale;\r\n\r\n        }\r\n        //if the passed stage is final sale\r\n        else {\r\n\r\n            //set the current stage to final sale\r\n            stage = CrowdsaleStage.finalSale;\r\n        }\r\n\r\n        //if current stage matches presale\r\n        if (stage == CrowdsaleStage.preSale) {\r\n\r\n            //set the rate to 500\r\n            rate = 500;\r\n        }\r\n\r\n        //if the current stage matches seed sale\r\n        else if (stage == CrowdsaleStage.seedSale) {\r\n\r\n            //set the rate to 200\r\n            rate = 200;\r\n        }\r\n        //if it is the final Sale\r\n        else {\r\n            rate;\r\n        }\r\n\r\n    }\r\n}\r\n",
  "sourcePath": "C:\\Data\\solulab\\solulab-ico-assignment\\contracts\\Crowdsale.sol",
  "compiler": {
    "name": "solc",
    "version": "0.8.10+commit.fc410830.Emscripten.clang"
  },
  "schemaVersion": "3.4.4",
  "updatedAt": "2022-01-09T19:08:06.925Z",
  "devdoc": {
    "kind": "dev",
    "methods": {},
    "version": 1
  },
  "userdoc": {
    "kind": "user",
    "methods": {},
    "version": 1
  }
}